:020000040800F2
:100000000028002021180008B1170008B7170008C1
:10001000BD170008C3170008C9170008000000003A
:10002000000000000000000000000000CF170008E2
:10003000DB17000800000000E7170008F3170008AE
:10004000691800086918000869180008691800088C
:10005000691800086918000869180008691800087C
:10006000691800086918000869180008691800086C
:10007000691800086918000869180008691800085C
:10008000691800086918000869180008691800084C
:10009000691800086918000869180008691800083C
:1000A000691800086918000869180008691800082C
:1000B000011800086918000800000000691800080D
:1000C000691800080000000000000000691800081E
:1000D000000000006918000869180008000000000E
:1000E0006918000869180008691800080000000075
:1000F0000000000000000000000000000000000000
:0C01000000000000000000005FF808F1A3
:10010C0010B5054C237833B9044B13B10448AFF345
:10011C0000800123237010BD74000020000000003B
:10012C00C02E000808B5034B1BB103490348AFF3BD
:10013C00008008BD0000000078000020C02E0008E0
:10014C0080B485B000AF78607B68064A82FB0312EE
:10015C009210DB17D31AFB60FB6818461437BD46A8
:10016C0080BC70476766666680B483B000AF786009
:10017C007A68084B83FB02139910D317C91A0B46E4
:10018C009B000B445B00D11A0B4618460C37BD463E
:10019C0080BC70476766666680B500AFB24B1B6863
:1001AC00013B032B00F29B8101A252F823F000BF0C
:1001BC00CD010008F7010008E7020008D70300088A
:1001CC0000F0FCFFA84B02221A60A84B1B684FF4EE
:1001DC007A7202FB03F3184601F0B4F9A44B012226
:1001EC001A60A44B01221A6080E101F013F8A04BB5
:1001FC001B68012B56D19F4B1B68013B032B00F254
:10020C006E8101A252F823F0250200085302000867
:10021C00810200089302000800F058FF934B1A6803
:10022C00954B1B68D31A1846FFF78AFF0346934A6F
:10023C00D35C184600F0D8FEFA2001F0D7F98D4BAC
:10024C0002221A602DE000F05FFF884B1A688A4B7F
:10025C001B68D31A1846FFF787FF0346874AD35CFF
:10026C00184600F0C1FEFA2001F0C0F9814B0322C0
:10027C001A6016E000F066FFFA2001F0B7F97D4B2A
:10028C0004221A600DE000F07BFF7B4B1B680133EE
:10029C00794A1360FA2001F0A9F9764B01221A6011
:1002AC0000BF1CE1764B1B68012B40F01A816F4B91
:1002BC009B684FF47A7202FB03F3184601F042F983
:1002CC00694B03221A606C4B00221A60684B0122A6
:1002DC001A60684B01221A6003E100F0C7FF644BFF
:1002EC001B68012B55D1634B1B68013B032B51D869
:1002FC0001A252F823F000BF1503000843030008C5
:10030C00710300088303000800F0E0FE574B9A6865
:10031C005C4B1B68D31A1846FFF712FF0346574A6B
:10032C00D35C184600F060FEFA2001F05FF9514BE7
:10033C0002221A602EE000F0E7FE4C4B9A68514BFB
:10034C001B68D31A1846FFF70FFF03464B4AD35CC2
:10035C00184600F049FEFA2001F048F9454B0322FB
:10036C001A6017E000F0EEFEFA2001F03FF9414B65
:10037C0004221A600EE000F003FF424B1B680133AD
:10038C00404A1360FA2001F031F93A4B01221A600D
:10039C0000E000BF3A4B1B68012B40F0A480334BAC
:1003AC005B684FF47A7202FB03F3184601F0CAF84B
:1003BC002D4B04221A60334B00221A602C4B012265
:1003CC001A602C4B01221A608DE000F07BFF284B49
:1003DC001B68012B68D1274B1B68013B032B64D88E
:1003EC0001A252F823F000BF0504000833040008F2
:1003FC00610400089904000800F068FE1B4B5A6861
:10040C00214B1B68D31A1846FFF79AFE03461B4A6A
:10041C00D35C184600F0E8FDFA2001F0E7F8154B24
:10042C0002221A6041E000F06FFE104B5A68164B26
:10043C001B68D31A1846FFF797FE03460F4AD35C86
:10044C00184600F0D1FDFA2001F0D0F8094B032238
:10045C001A602AE000F076FEFA2001F0C7F8054B8E
:10046C0004221A6021E000BF0800002010000020C8
:10047C00E000002000000020900000205C00002024
:10048C00C8000020980000209400002000F078FEA6
:10049C00174B1B680133164A1360FA2001F0A6F8BB
:1004AC00144B01221A6000E000BF134B1B68012B98
:1004BC001BD1124B1B684FF47A7202FB03F31846E4
:1004CC0001F040F80E4B02221A60094B00221A6010
:1004DC000C4B01221A60074B01221A6005E000BF89
:1004EC0004E000BF02E000BF00E000BF00BF80BD21
:1004FC009400002000000020C80000201000002004
:10050C0008000020E000002080B500AFAB4B1B685A
:10051C000B3B032B00F2A08101A252F823F000BF89
:10052C003D05000867050008570600084707000846
:10053C0000F05AFEA14B0D221A60A14B9B684FF4A0
:10054C007A7202FB03F3184601F018F89D4B012256
:10055C001A609D4B01221A607EE100F071FE994BEE
:10056C001B68012B55D1984B1B68013B032B51D8B1
:10057C0001A252F823F000BF95050008A70500085A
:10058C00B9050008E705000800F0A0FDFA2001F00D
:10059C0011F88D4B02221A603CE000F0B5FDFA20F8
:1005AC0001F008F8884B03221A6033E0844B1A6878
:1005BC00864B1B68D31A1846FFF7C2FD0346844AC4
:1005CC00D35C184600F010FD00F0BCFDFA2000F0E2
:1005DC00F1FF7D4B04221A601CE0794B1A687B4BAF
:1005EC001B68D31A1846FFF7BFFD0346784AD35C45
:1005FC00184600F0F9FC00F0C3FD744B1B68013386
:10060C00724A1360FA2000F0D5FF6F4B01221A607A
:10061C0000E000BF6F4B1B68012B40F01881684B4A
:10062C009B684FF47A7202FB03F3184600F0A6FFA6
:10063C00624B0D221A60654B00221A60624B01223C
:10064C001A60604B01221A6001E100F025FE5D4B3F
:10065C001B68012B55D15C4B1B68013B032B51D8FC
:10066C0001A252F823F000BF850600089706000887
:10067C00A9060008D706000800F028FDFA2000F0B3
:10068C0099FF514B02221A603CE000F03DFDFA202C
:10069C0000F090FF4C4B03221A6033E0484B9A68F1
:1006AC004D4B1B68D31A1846FFF74AFD0346484AC0
:1006BC00D35C184600F098FC00F044FDFA2000F0E2
:1006CC0079FF414B04221A601CE03D4B9A68424B67
:1006DC001B68D31A1846FFF747FD03463C4AD35C08
:1006EC00184600F081FC00F04BFD3B4B1B680133BE
:1006FC00394A1360FA2000F05DFF334B01221A6077
:10070C0000E000BF334B1B68012B40F0A2802C4B48
:10071C005B684FF47A7202FB03F3184600F02EFF6D
:10072C00264B0E221A602C4B00221A60264B0122FB
:10073C001A60244B01221A608BE000F0D9FD214B8A
:10074C001B68012B68D1204B1B68013B032B64D821
:10075C0001A252F823F000BF7507000887070008B4
:10076C0099070008ED07000800F0B0FCFA2000F033
:10077C0021FF154B02221A604FE000F0C5FCFA2055
:10078C0000F018FF104B03221A6046E00C4B5A681D
:10079C00124B1B68D31A1846FFF7D2FC03460C4ABF
:1007AC00D35C184600F020FC00F0CCFCFA2000F0E2
:1007BC0001FF054B04221A602FE000BF0C00002043
:1007CC0010000020D8000020040000209C00002015
:1007DC005C000020D0000020A4000020A00000201D
:1007EC001E4B5A681E4B1B68D31A1846FFF7BCFCED
:1007FC0003461C4AD35C184600F0F6FB00F0C0FC24
:10080C00174B1B680133164A1360FA2000F0D2FE16
:10081C00154B01221A6000E000BF144B1B68012B22
:10082C0019D10E4B1B684FF47A7202FB03F3184676
:10083C0000F0A4FE0E4B0C221A60094B00221A6029
:10084C00094B01221A600B4B01221A6003E000BF16
:10085C0002E000BF00E000BF00BF80BD1000002020
:10086C00A00000205C00002004000020D00000202C
:10087C000C000020D800002080B500AFA94B1B78DD
:10088C00032B00F2578201A252F823F0A9080008AA
:10089C00510A00085D0A0008FD0B0008A24B00225B
:1008AC001A60A24B00221A60A14B00221A60A14BC5
:1008BC0000221A60A04B00221A60A04B00221A6082
:1008CC009F4B01221A609F4B0B221A60FFF764FCAE
:1008DC00FFF71AFE00F044FA0346012BF6D1914BB8
:1008EC0001221A70984B01221A60984B01221A604F
:1008FC0000F090FC00F0A4FC954B00221A6000BFA5
:10090C0018E2914B1B68012B0BD14FF4FA7000F0DD
:10091C0019FE02218F4801F0BCFA10218D4801F01C
:10092C00B8FA8A4B1B68012B50D1FA2000F026FE36
:10093C00894B1B68013B032B49D801A252F823F0C9
:10094C005D0900087309000889090008B10900084D
:10095C0000F0BCFB814B1B78184600F045FB7E4B2E
:10096C0002221A6033E000F0CFFB7C4B9B781846D8
:10097C0000F03AFB784B03221A6028E000F0E2FB0F
:10098C00774B1A68774B1B6813441846FFF7D8FB54
:10099C000346724AD35C184600F026FB6E4B0422C9
:1009AC001A6014E000F0ECFB6D4B1A686D4B1B6881
:1009BC0013441846FFF7D8FB0346684AD35C184625
:1009CC0000F012FB644B01221A6000E000BF00F043
:1009DC00D9F90346012B04D1624B1B680133614AE0
:1009EC00136000F0E1F90346012B10D15C4B1A683F
:1009FC005C4B1B6813445A4A1360594B1B68632B9E
:100A0C0002DD574B01221A60564B00221A6000F08F
:100A1C00A7F90346012B15D1424B02221A704A4BFF
:100A2C0001221A60494B01221A6000F04BFC00F0C5
:100A3C005FFC474B01221A60474B01221A60494B5D
:100A4C0000221A60424B1B68002B3FF45AAF71E135
:100A5C003F4B00221A60C5E03B4B1B68012B0BD1AE
:100A6C004FF4FA7000F06EFD04213A4801F011FACF
:100A7C002021384801F00DFA344B1B68012B75D13D
:100A8C00FA2000F07BFD344B1B68013B032B6ED826
:100A9C0001A252F823F000BFB50A0008CB0A0008E7
:100AAC00E10A0008090B000800F010FB2B4B1B7827
:100ABC00184600F099FA284B02221A6057E000F011
:100ACC0023FB264BDB78184600F08EFA224B0322D0
:100ADC001A604CE000F036FB214B5A68224B1B6825
:100AEC0013441846FFF72CFB03461C4AD35C1846EC
:100AFC0000F07AFA184B04221A6038E000F040FB40
:100B0C00174B5A68184B1B6813441846FFF72CFBFD
:100B1C000346124AD35C184600F066FA0E4B0122CB
:100B2C001A6024E0A800002098000020A4000020F7
:100B3C00900000209C00002094000020A0000020C9
:100B4C00080000200C000020C8000020D00000206D
:100B5C00B8000020000801401C0000205C000020B0
:100B6C0010000020AC000020B400002000BF00F0FA
:100B7C0009F90346012B04D16F4B1B6801336E4AF4
:100B8C00136000F011F90346012B10D16B4B5A681E
:100B9C00694B1B681344694A5360684B5B68632B51
:100BAC0002DD664B01225A60634B00221A6000F092
:100BBC00D7F80346012B15D1614B03221A70614BF8
:100BCC0001221A60604B01221A6000F04FFB00F00A
:100BDC0063FB5E4B01221A605D4B01221A60564B7F
:100BEC0000221A60594B1B68002B3FF435AFA1E073
:100BFC00564B00221A6097E0524B1B68012B0BD10D
:100C0C004FF4FA7000F09EFC0821524801F041F9B3
:100C1C004021504801F03DF94B4B1B68012B51D141
:100C2C00FA2000F0ABFC4A4B1B68013B032B4AD863
:100C3C0001A252F823F000BF550C00086B0C000801
:100C4C00810C0008A90C000800F040FA424B1B78FC
:100C5C00184600F0C9F93E4B02221A6033E000F04E
:100C6C0053FA3D4B1B79184600F0BEF9384B032262
:100C7C001A6028E000F066FA304B9A68374B1B6814
:100C8C0013441846FFF75CFA0346334AD35C184604
:100C9C0000F0AAF92E4B04221A6014E000F070FA4E
:100CAC00264B9A682D4B1B6813441846FFF75CFAC9
:100CBC000346294AD35C184600F096F9244B0122CE
:100CCC001A6000E000BF00F05DF80346012B04D170
:100CDC00224B1B680133214A136000F065F8034670
:100CEC00012B10D1154B9A681C4B1B681344134AEB
:100CFC009360124B9B68632B02DD104B01229A60B0
:100D0C00164B00221A6000F02BF80346012B0BD176
:100D1C000B4B00221A700D4B01221A600C4B012256
:100D2C001A600E4B00221A60084B1B68002B3FF414
:100D3C0063AF00BF00BF80BDB400002010000020D6
:100D4C00A8000020C8000020D0000020B80000201F
:100D5C001C000020000801405C000020B0000020B6
:100D6C0080B400AF064B1B68012B04D1044B00224E
:100D7C001A60012300E000231846BD4680BC704772
:100D8C00BC00002080B400AF064B1B68012B04D1C3
:100D9C00044B00221A60012300E000231846BD46D4
:100DAC0080BC7047C000002080B400AF064B1B68AD
:100DBC00012B04D1044B00221A60012300E0002314
:100DCC001846BD4680BC7047C400002080B500AFFB
:100DDC00244B1B68244A1360244B1B68214A136064
:100DEC004FF40051224801F025F803461A461F4BD8
:100DFC001A601C4B1A681D4B1B689A422FD1194B59
:100E0C001A68194B1B689A4229D1174B1A68194B4F
:100E1C001B689A420FD0144B1B68164A1360154B73
:100E2C001B68002B1BD1144B4FF4FA721A60134B36
:100E3C0001221A6013E0104B1B68013B0E4A136031
:100E4C000D4B1B68002B0AD10A4B1B68002B06D1DB
:100E5C00094B4FF4FA721A60084B01221A6000BF5A
:100E6C0080BD00BF30000020340000202C0000208A
:100E7C00000801403800002020000020BC000020A9
:100E8C0080B500AF244B1B68244A1360244B1B68AD
:100E9C00214A13604FF48041224800F0CBFF0346F7
:100EAC001A461F4B1A601C4B1A681D4B1B689A4242
:100EBC002FD1194B1A68194B1B689A4229D1174B21
:100ECC001A68194B1B689A420FD0144B1B68164AB0
:100EDC001360154B1B68002B1BD1144B4FF4FA728B
:100EEC001A60134B01221A6013E0104B1B68013B74
:100EFC000E4A13600D4B1B68002B0AD10A4B1B6862
:100F0C00002B06D1094B4FF4FA721A60084B0122E0
:100F1C001A6000BF80BD00BF4000002044000020CC
:100F2C003C00002000080140480000202400002064
:100F3C00C000002080B500AF244B1B68244A13600E
:100F4C00244B1B68214A13604FF40041224800F0E7
:100F5C0071FF03461A461F4B1A601C4B1A681D4B37
:100F6C001B689A422FD1194B1A68194B1B689A426D
:100F7C0029D1174B1A68194B1B689A420FD0144B86
:100F8C001B68164A1360154B1B68002B1BD1144BA6
:100F9C004FF4FA721A60134B01221A6013E0104BD3
:100FAC001B68013B0E4A13600D4B1B68002B0AD1CA
:100FBC000A4B1B68002B06D1094B4FF4FA721A60CE
:100FCC00084B01221A6000BF80BD00BF50000020FA
:100FDC00540000204C000020000801405800002064
:100FEC0028000020C400002080B582B000AF03466A
:100FFC00FB71FB7903F00103002B0CBF01230023D1
:10100C00DBB21A460121304800F02BFFFB795B085C
:10101C00DBB203F00103002B0CBF01230023DBB276
:10102C001A460221284800F01CFFFB799B08DBB212
:10103C0003F00103002B0CBF01230023DBB21A4683
:10104C000421214800F00DFFFB79DB08DBB203F033
:10105C000103002B0CBF01230023DBB21A4608212D
:10106C00194800F0FEFEFB791B09DBB203F001030B
:10107C00002B0CBF01230023DBB21A4610211248AF
:10108C0000F0EFFEFB795B09DBB203F00103002BF0
:10109C000CBF01230023DBB21A4620210A4800F0C2
:1010AC00E0FEFB799B09DBB203F00103002B0CBFC4
:1010BC0001230023DBB21A464021034800F0D1FE85
:1010CC0000BF0837BD4680BD000C014080B500AFA5
:1010DC00002280210B4800F0C4FE01224FF48071E5
:1010EC00084800F0BEFE01224FF40071054800F0E4
:1010FC00B8FE01224FF48061024800F0B2FE00BF3E
:10110C0080BD00BF0008014080B500AF01228021E6
:10111C000B4800F0A6FE00224FF48071084800F046
:10112C00A0FE01224FF40071054800F09AFE012246
:10113C004FF48061024800F094FE00BF80BD00BFF8
:10114C000008014080B500AF012280210B4800F05F
:10115C0088FE01224FF48071084800F082FE0022C4
:10116C004FF40071054800F07CFE01224FF48061C1
:10117C00024800F076FE00BF80BD00BF00080140B1
:10118C0080B500AF012280210B4800F06AFE0122DD
:10119C004FF48071084800F064FE01224FF4007196
:1011AC00054800F05EFE00224FF48061024800F01A
:1011BC0058FE00BF80BD00BF0008014080B500AFE5
:1011CC0001220221074800F04CFE012208210548AB
:1011DC0000F047FE01220421024800F042FE00BF4D
:1011EC0080BD00BF0008014080B500AF0122102176
:1011FC00074800F036FE01224021054800F031FE80
:10120C0001222021024800F02CFE00BF80BD00BF4F
:10121C000008014080B500AF00220221074800F011
:10122C0020FE01220821054800F01BFE01220421AA
:10123C00024800F016FE00BF80BD00BF0008014050
:10124C0080B500AF00221021074800F00AFE0122F1
:10125C004021054800F005FE01222021024800F043
:10126C0000FE00BF80BD00BF0008014080B500AF8C
:10127C0001220221074800F0F4FD00220821054854
:10128C0000F0EFFD01220421024800F0EAFD00BF4E
:10129C0080BD00BF0008014080B500AF01221021C5
:1012AC00074800F0DEFD00224021054800F0D9FD82
:1012BC0001222021024800F0D4FD00BF80BD00BFF8
:1012CC000008014080B500AF01220221074800F060
:1012DC00C8FD01220821054800F0C3FD00220421AD
:1012EC00024800F0BEFD00BF80BD00BF00080140F9
:1012FC0080B500AF01221021074800F0B2FD012299
:10130C004021054800F0ADFD00222021024800F0EC
:10131C00A8FD00BF80BD00BF0008014080B500AF34
:10132C0000F09EFA00F00CF800F092F800F044F88F
:10133C00024801F0FFF9FFF79FFAFCE7F0000020EC
:10134C0080B590B000AF07F1180328220021184691
:10135C0001F0A8FD3B1D00221A605A609A60DA6009
:10136C001A610223BB610123BB621023FB620023C1
:10137C007B6307F11803184600F0A4FD0346002B0D
:10138C0001D000F0D9F80F237B600023BB60002351
:10139C00FB6000233B6100237B613B1D0021184651
:1013AC0001F010F80346002B01D000F0C5F800BF87
:1013BC004037BD4680BD000080B586B000AF07F158
:1013CC00080300221A605A609A60DA603B460022D9
:1013DC001A605A601D4B4FF080421A601B4B41F64D
:1013EC003F725A60194B00229A60184B0A22DA603D
:1013FC00164B00221A61154B00229A61134801F01A
:10140C0049F90346002B01D000F096F84FF48053B5
:10141C00BB6007F1080319460C4801F0DFFA0346DC
:10142C00002B01D000F088F800233B6000237B6088
:10143C003B461946054801F0A7FC0346002B01D09A
:10144C0000F07AF800BF1837BD4680BDF0000020D0
:10145C0080B586B000AF07F1080300221A605A600D
:10146C009A60DA60294B9B69284A43F00403936124
:10147C00264B9B6903F004037B607B68234B9B69C1
:10148C00224A43F008039361204B9B6903F0080345
:10149C003B603B68002240F2FE711D4800F0E1FC0D
:1014AC0000224FF67F611B4800F0DBFC40F2FE731C
:1014BC00BB600123FB6000233B6102237B6107F1CE
:1014CC0008031946124800F03BFB4FF67F63BB60E4
:1014DC000123FB6000233B6102237B6107F10803BE
:1014EC0019460C4800F02CFB4FF46043BB60002302
:1014FC00FB6001233B6107F108031946044800F027
:10150C001FFB00BF1837BD4680BD00BF0010024056
:10151C0000080140000C014080B582B000AF78603B
:10152C00FFF754FCFFF7ACFCFFF704FD00F07AF872
:10153C0000BF0837BD4680BD80B400AF72B600BF97
:10154C00FEE7000080B483B000AF78607B68084A87
:10155C0082FB03129210DB17D31A064A1360064B58
:10156C0000221A6000BF0C37BD4680BC704700BF1C
:10157C0067666666CC000020C800002080B483B08B
:10158C0000AF78607B68084A82FB03129210DB176D
:10159C00D31A064A1360064B00221A6000BF0C37A0
:1015AC00BD4680BC704700BF67666666D4000020ED
:1015BC00D000002080B483B000AF78607B68084A0C
:1015CC0082FB03129210DB17D31A064A1360064BE8
:1015DC0000221A6000BF0C37BD4680BC704700BFAC
:1015EC0067666666DC000020D800002080B483B0FB
:1015FC0000AF78607B68084A82FB03129210DB17FD
:10160C00D31A064A1360064B00221A6000BF0C372F
:10161C00BD4680BC704700BF67666666E40000206C
:10162C00E000002080B400AF294B1B68002B0BDDC1
:10163C00274B1B68013B264A1360254B1B68002B6C
:10164C0002DC244B01221A60234B1B68002B0BDDA0
:10165C00214B1B68013B204A13601F4B1B68002B5E
:10166C0002DC1E4B01221A601D4B1B68002B0BDD8C
:10167C001B4B1B68013B1A4A1360194B1B68002B50
:10168C0002DC184B01221A60174B1B68002B0BDD78
:10169C00154B1B68013B144A1360134B1B68002B42
:1016AC0002DC124B01221A60114B1B68002B0BDD64
:1016BC000F4B1B68013B0E4A13600D4B1B68002B34
:1016CC0002DC0C4B01221A6000BFBD4680BC704787
:1016DC00CC000020C8000020D4000020D000002046
:1016EC00DC000020D8000020E4000020E0000020F6
:1016FC00EC000020E800002080B485B000AF154B52
:10170C009B69144A43F001039361124B9B6903F0EC
:10171C000103BB60BB680F4BDB690E4A43F080537F
:10172C00D3610C4BDB6903F080537B607B680A4B05
:10173C005B68FB60FB6823F0E063FB60FB6843F0D5
:10174C008063FB60044AFB68536000BF1437BD46DE
:10175C0080BC7047001002400000014080B584B08E
:10176C0000AF78607B681B68B3F1804F13D10C4BD2
:10177C00DB690B4A43F00103D361094BDB6903F0CE
:10178C000103FB60FB68002200211C2000F0A1F982
:10179C001C2000F0BAF900BF1037BD4680BD00BF59
:1017AC000010024080B400AFFEE780B400AFFEE74B
:1017BC0080B400AFFEE780B400AFFEE780B400AFAA
:1017CC00FEE780B400AF00BFBD4680BC704780B45C
:1017DC0000AF00BFBD4680BC704780B400AF00BFF7
:1017EC00BD4680BC704780B500AF00F07FF800BFED
:1017FC0080BD000080B500AF024800F0E7FF00BFDD
:10180C0080BD00BFF000002080B400AF00BFBD461B
:10181C0080BC70470C480D490D4A002302E0D45897
:10182C00C4500433C4188C42F9D30A4A0A4C00231E
:10183C0001E013600432A242FBD3FFF7E5FF01F095
:10184C000DFBFFF76BFD70470000002074000020BB
:10185C00002F0008740000203C010020FEE700006F
:10186C0080B500AF084B1B68074A43F010031360A8
:10187C00032000F023F90F2000F008F8FFF73CFFDD
:10188C000023184680BD00BF0020024080B582B006
:10189C0000AF7860124B1A68124B1B7819464FF444
:1018AC007A73B3FBF1F3B2FBF3F3184600F03BF998
:1018BC000346002B01D001230EE07B680F2B0AD8C6
:1018CC00002279684FF0FF3000F003F9064A7B687C
:1018DC001360002300E0012318460837BD4680BD85
:1018EC0068000020700000206C00002080B400AF65
:1018FC00054B1B781A46054B1B681344034A1360AF
:10190C0000BFBD4680BC704770000020380100202D
:10191C0080B400AF024B1B681846BD4680BC7047B4
:10192C003801002080B485B000AF78607B6803F08C
:10193C000703FB600C4BDB68BB60BA684FF6FF0318
:10194C001340BB60FB681A02BB68134343F0BF63D0
:10195C0043F40033BB60044ABB68D36000BF143748
:10196C00BD4680BC704700BF00ED00E080B400AF06
:10197C00044BDB681B0A03F007031846BD4680BC0A
:10198C00704700BF00ED00E080B483B000AF0346A9
:10199C00FB7197F90730002B0BDBFB7903F01F026F
:1019AC00064997F907305B09012000FA02F241F869
:1019BC00232000BF0C37BD4680BC704700E100E01F
:1019CC0080B483B000AF03463960FB7197F90730E0
:1019DC00002B0ADB3B68DAB20C4997F9073012018D
:1019EC00D2B20B4483F800230AE03B68DAB2084910
:1019FC00FB7903F00F03043B1201D2B20B441A76AD
:101A0C0000BF0C37BD4680BC704700BF00E100E052
:101A1C0000ED00E080B489B000AFF860B9607A6086
:101A2C00FB6803F00703FB61FB69C3F10703042B9D
:101A3C0028BF0423BB61FB690433062B02D9FB6965
:101A4C00033B00E000237B614FF0FF32BB6902FADD
:101A5C0003F3DA43BB681A407B699A404FF0FF31BD
:101A6C007B6901FA03F3D9437B680B401343184697
:101A7C002437BD4680BC704780B582B000AF78601B
:101A8C007B68013BB3F1807F01D301230FE00A4A4D
:101A9C007B68013B53600F214FF0FF30FFF790FF45
:101AAC00054B00229A60044B07221A60002318464B
:101ABC000837BD4680BD00BF10E000E080B582B0A5
:101ACC0000AF78607868FFF72DFF00BF0837BD4680
:101ADC0080BD80B586B000AF0346B9607A60FB73F9
:101AEC0000237B61FFF742FF78617A68B9687869F7
:101AFC00FFF790FF024697F90F3011461846FFF793
:101B0C005FFF00BF1837BD4680BD80B582B000AF07
:101B1C000346FB7197F907301846FFF735FF00BFF6
:101B2C000837BD4680BD80B582B000AF786078685C
:101B3C00FFF7A2FF034618460837BD4680BD0000DC
:101B4C0080B48BB000AF7860396000237B620023D7
:101B5C003B6248E101227B6A02FA03F3FB613B68BA
:101B6C001B68FA691340BB61BA69FB699A4240F081
:101B7C0037813B685B68A34A93425ED0A14A93428B
:101B8C0075D8A14A934258D09F4A93426FD89F4A26
:101B9C00934252D09D4A934269D89D4A93424CD06D
:101BAC009B4A934263D89B4A934246D0994A9342AC
:101BBC005DD8122B2AD8122B59D801A252F823F037
:101BCC00471C0008211C0008331C0008751C000869
:101BDC007B1C00087B1C00087B1C00087B1C00087D
:101BEC007B1C00087B1C00087B1C00087B1C00086D
:101BFC007B1C00087B1C00087B1C00087B1C00085D
:101C0C007B1C0008291C00083D1C0008824A9342DA
:101C1C0013D02CE03B68DB683B6229E03B68DB6857
:101C2C0004333B6224E03B68DB6808333B621FE013
:101C3C003B68DB680C333B621AE03B689B68002B0B
:101C4C0002D104233B6213E03B689B68012B05D156
:101C5C0008233B627B68FA691A6109E008233B623E
:101C6C007B68FA695A6103E000233B6200E000BF25
:101C7C00BB69FF2B01D87B6801E07B6804337B6177
:101C8C00BB69FF2B02D87B6A9B0002E07B6A083B96
:101C9C009B003B617B691A680F213B6901FA03F3D6
:101CAC00DB431A40396A3B6901FA03F31A437B6937
:101CBC001A603B685B6803F08053002B00F0908047
:101CCC00564B9B69554A43F001039361534B9B69F7
:101CDC0003F00103BB60BB68514A7B6A9B0802336B
:101CEC0052F82330FB607B6A03F003039B000F2246
:101CFC0002FA03F3DB43FA681340FB607B68494A42
:101D0C0093420DD07B68484A934207D07B68474A80
:101D1C00934201D1022304E0032302E0012300E0FB
:101D2C0000237A6A02F0030292009340FA6813438C
:101D3C00FB603B497B6A9B080233FA6841F823201D
:101D4C003B685B6803F48033002B06D0384B1A6871
:101D5C003749BB6913430B6006E0354B1A68BB6906
:101D6C00DB43334913400B603B685B6803F400337F
:101D7C00002B06D02E4B5A682D49BB6913434B6080
:101D8C0006E02B4B5A68BB69DB43294913404B6077
:101D9C003B685B6803F48013002B06D0244B9A68D5
:101DAC002349BB6913438B6006E0214B9A68BB69DE
:101DBC00DB431F4913408B603B685B6803F40013E3
:101DCC00002B06D01A4BDA681949BB691343CB6058
:101DDC0006E0174BDA68BB69DB4315491340CB604F
:101DEC007B6A01337B623B681A687B6A22FA03F3D5
:101DFC00002B7FF4AFAE00BF00BF2C37BD4680BCBC
:101E0C00704700BF0000321000003110000022109B
:101E1C0000002110000012100000111000100240F0
:101E2C000000014000080140000C0140001001407E
:101E3C000004014080B485B000AF78600B467B8015
:101E4C007B689A687B881340002B02D00123FB73BC
:101E5C0001E00023FB73FB7B18461437BD4680BCA6
:101E6C00704780B483B000AF78600B467B8013461C
:101E7C007B707B78002B03D07A887B681A6103E037
:101E8C007B881A047B681A6100BF0C37BD4680BC86
:101E9C00704780B485B000AF78600B467B807B6860
:101EAC00DB68FB607A88FB6813401A04FB68D94333
:101EBC007B880B401A437B681A6100BF1437BD4600
:101ECC0080BC704780B586B000AF78607B68002B13
:101EDC0001D101236CE27B681B6803F00103002B2A
:101EEC0000F08780924B5B6803F00C03042B0CD042
:101EFC008F4B5B6803F00C03082B12D18C4B5B6887
:101F0C0003F48033B3F5803F0BD1894B1B6803F48A
:101F1C000033002B6CD07B685B68002B68D10123ED
:101F2C0046E27B685B68B3F5803F06D1804B1B684B
:101F3C007F4A43F4803313602EE07B685B68002B90
:101F4C000CD17B4B1B687A4A23F480331360784B9B
:101F5C001B68774A23F4802313601DE07B685B6861
:101F6C00B3F5A02F0CD1724B1B68714A43F480233C
:101F7C0013606F4B1B686E4A43F4803313600BE0A5
:101F8C006B4B1B686A4A23F480331360684B1B68E5
:101F9C00674A23F4802313607B685B68002B13D0A3
:101FAC00FFF7B6FC386108E0FFF7B2FC02463B696C
:101FBC00D31A642B01D90323FAE15D4B1B6803F49C
:101FCC000033002BF0D014E0FFF7A2FC386108E0DE
:101FDC00FFF79EFC02463B69D31A642B01D90323FD
:101FEC00E6E1534B1B6803F40033002BF0D100E007
:101FFC0000BF7B681B6803F00203002B63D04C4BC3
:10200C005B6803F00C03002B0BD0494B5B6803F0AF
:10201C000C03082B1CD1464B5B6803F48033002B5C
:10202C0016D1434B1B6803F00203002B05D07B68D1
:10203C001B69012B01D00123BAE13D4B1B6823F036
:10204C00F8027B685B69DB00394913430B603AE0AB
:10205C007B681B69002B20D0364B01221A60FFF7DE
:10206C0057FC386108E0FFF753FC02463B69D31A72
:10207C00022B01D903239BE12D4B1B6803F00203B8
:10208C00002BF0D02A4B1B6823F0F8027B685B69AD
:10209C00DB00274913430B6015E0264B00221A6026
:1020AC00FFF736FC386108E0FFF732FC02463B696B
:1020BC00D31A022B01D903237AE11D4B1B6803F0C1
:1020CC000203002BF0D17B681B6803F00803002B84
:1020DC003AD07B689B69002B19D0174B01221A60F0
:1020EC00FFF716FC386108E0FFF712FC02463B696B
:1020FC00D31A022B01D903235AE10D4B5B6A03F06F
:10210C000203002BF0D0012000F0A6FA1CE00A4BD1
:10211C0000221A60FFF7FCFB38610FE0FFF7F8FBB9
:10212C0002463B69D31A022B08D9032340E100BFB6
:10213C000010024000004242800442429E4B5B6A07
:10214C0003F00203002BE9D17B681B6803F0040346
:10215C00002B00F0A6800023FB75974BDB6903F086
:10216C008053002B0DD1944BDB69934A43F0805381
:10217C00D361914BDB6903F08053BB60BB680123D7
:10218C00FB758E4B1B6803F48073002B18D18B4BA3
:10219C001B688A4A43F480731360FFF7B9FB3861FC
:1021AC0008E0FFF7B5FB02463B69D31A642B01D953
:1021BC000323FDE0814B1B6803F48073002BF0D0EC
:1021CC007B68DB68012B06D17B4B1B6A7A4A43F098
:1021DC00010313622DE07B68DB68002B0CD1764B7E
:1021EC001B6A754A23F001031362734B1B6A724A14
:1021FC0023F0040313621CE07B68DB68052B0CD115
:10220C006D4B1B6A6C4A43F0040313626A4B1B6AE6
:10221C00694A43F0010313620BE0674B1B6A664A81
:10222C0023F001031362644B1B6A634A23F004031B
:10223C0013627B68DB68002B15D0FFF769FB3861F4
:10224C000AE0FFF765FB02463B69D31A41F288327C
:10225C00934201D90323ABE0574B1B6A03F00203F3
:10226C00002BEED014E0FFF753FB38610AE0FFF7C8
:10227C004FFB02463B69D31A41F28832934201D993
:10228C00032395E04C4B1B6A03F00203002BEED1A9
:10229C00FB7D012B05D1484BDB69474A23F080536A
:1022AC00D3617B68DB69002B00F08180424B5B685B
:1022BC0003F00C03082B61D07B68DB69022B46D141
:1022CC003F4B00221A60FFF723FB386108E0FFF751
:1022DC001FFB02463B69D31A022B01D9032367E08B
:1022EC00354B1B6803F00073002BF0D17B681B6A25
:1022FC00B3F5803F08D1304B5B6823F400327B6828
:10230C009B682D4913434B602B4B5B6823F4741271
:10231C007B68196A7B685B6A0B43274913434B60E4
:10232C00274B01221A60FFF7F3FA386108E0FFF738
:10233C00EFFA02463B69D31A022B01D9032337E08B
:10234C001D4B1B6803F00073002BF0D02FE01C4BCF
:10235C0000221A60FFF7DCFA386108E0FFF7D8FAC0
:10236C0002463B69D31A022B01D9032320E0124BFE
:10237C001B6803F00073002BF0D118E07B68DB695D
:10238C00012B01D1012313E00B4B5B68FB60FB6855
:10239C0003F480327B681B6A9A4206D1FB6803F413
:1023AC0070127B685B6A9A4201D0012300E0002323
:1023BC0018461837BD4680BD001002400070004022
:1023CC006000424280B584B000AF786039607B68B1
:1023DC00002B01D10123D0E06A4B1B6803F00703EB
:1023EC003A689A4210D9674B1B6823F0070265497B
:1023FC003B6813430B60634B1B6803F007033A689D
:10240C009A4201D00123B8E07B681B6803F00203F9
:10241C00002B20D07B681B6803F00403002B05D035
:10242C00594B5B68584A43F4E06353607B681B6804
:10243C0003F00803002B05D0534B5B68524A43F45E
:10244C0060535360504B5B6823F0F0027B689B68D1
:10245C004D4913434B607B681B6803F00103002B51
:10246C0040D07B685B68012B07D1474B1B6803F49A
:10247C000033002B15D101237FE07B685B68022BB6
:10248C0007D1414B1B6803F00073002B09D10123CA
:10249C0073E03D4B1B6803F00203002B01D10123B9
:1024AC006BE0394B5B6823F003027B685B68364951
:1024BC0013434B60FFF72CFAF8600AE0FFF728FA99
:1024CC000246FB68D31A41F28832934201D90323A6
:1024DC0053E02D4B5B6803F00C027B685B689B0040
:1024EC009A42EBD1274B1B6803F007033A689A42D8
:1024FC0010D2244B1B6823F0070222493B6813437C
:10250C000B60204B1B6803F007033A689A4201D01A
:10251C00012332E07B681B6803F00403002B08D016
:10252C00194B5B6823F4E0627B68DB681649134344
:10253C004B607B681B6803F00803002B09D0124B1F
:10254C005B6823F460527B681B69DB000E49134304
:10255C004B6000F021F802460B4B5B681B0903F043
:10256C000F030A49CB5C22FA03F3094A1360094BA7
:10257C001B681846FFF78AF9002318461037BD462A
:10258C0080BD00BF0020024000100240E82E000871
:10259C00680000206C00002090B48AB000AF2A4B79
:1025AC003C1D0FCB84E80F0040F201233B8000233D
:1025BC00FB610023BB6100237B6200237B61002352
:1025CC003B62224B5B68FB61FB6903F00C03042B41
:1025DC0002D0082B03D02DE01D4B3B622DE0FB6994
:1025EC009B0C03F00F0307F12802134413F8243C4F
:1025FC007B61FB6903F48033002B13D0134B5B68B6
:10260C005B0C03F0010307F12802134413F8283C78
:10261C00BB617B690E4A02FB03F2BB69B2FBF3F3AD
:10262C007B6204E07B690B4A02FB03F37B627B6AEF
:10263C003B6202E0064B3B6200BF3B6A1846283700
:10264C00BD4690BC704700BFD82E00080010024059
:10265C0000127A0000093D0080B485B000AF7860AC
:10266C000A4B1B680A4AA2FB03235B0A7A6802FB2B
:10267C0003F3FB6000BFFB685A1EFA60002BF9D114
:10268C0000BF00BF1437BD4680BC704768000020F7
:10269C00D34D621080B582B000AF78607B68002BA0
:1026AC0001D1012341E07B6893F83D30DBB2002B74
:1026BC0006D17B68002283F83C207868FFF74EF83F
:1026CC007B68022283F83D207B681A687B680433A0
:1026DC001946104600F06AFA7B68012283F84620FE
:1026EC007B68012283F83E207B68012283F83F201F
:1026FC007B68012283F840207B68012283F841200B
:10270C007B68012283F842207B68012283F84320F6
:10271C007B68012283F844207B68012283F84520E2
:10272C007B68012283F83D20002318460837BD46FC
:10273C0080BD000080B485B000AF78607B6893F8F2
:10274C003D30DBB2012B01D0012335E07B68022246
:10275C0083F83D207B681B68DA687B681B6842F055
:10276C000102DA607B681B68164A934209D07B68C9
:10277C001B68B3F1804F04D07B681B68124A9342EC
:10278C0011D17B681B689B6803F00703FB60FB6837
:10279C00062B10D07B681B681A687B681B6842F09C
:1027AC0001021A6007E07B681B681A687B681B686B
:1027BC0042F001021A60002318461437BD4680BC53
:1027CC00704700BF002C01400004004080B582B06F
:1027DC0000AF78607B681B681B6903F00203022B57
:1027EC0022D17B681B68DB6803F00203022B1BD130
:1027FC007B681B686FF002021A617B6801221A77F2
:10280C007B681B689B6903F00303002B03D078687B
:10281C0000F0B1F905E0786800F0A4F9786800F0F0
:10282C00B3F97B6800221A777B681B681B6903F07D
:10283C000403042B22D17B681B68DB6803F00403C0
:10284C00042B1BD17B681B686FF004021A617B6838
:10285C0002221A777B681B689B6903F44073002B78
:10286C0003D0786800F087F905E0786800F07AF911
:10287C00786800F089F97B6800221A777B681B68FE
:10288C001B6903F00803082B22D17B681B68DB68EB
:10289C0003F00803082B1BD17B681B686FF0080240
:1028AC001A617B6804221A777B681B68DB6903F06A
:1028BC000303002B03D0786800F05DF905E078681D
:1028CC0000F050F9786800F05FF97B6800221A7705
:1028DC007B681B681B6903F01003102B22D17B68EB
:1028EC001B68DB6803F01003102B1BD17B681B6883
:1028FC006FF010021A617B6808221A777B681B68DC
:10290C00DB6903F44073002B03D0786800F033F9D3
:10291C0005E0786800F026F9786800F035F97B68F6
:10292C0000221A777B681B681B6903F00103012BDB
:10293C000ED17B681B68DB6803F00103012B07D108
:10294C007B681B686FF001021A617868FEF7E4FD82
:10295C007B681B681B6903F08003802B0ED17B689E
:10296C001B68DB6803F08003802B07D17B681B6836
:10297C006FF080021A61786800F067FA7B681B6858
:10298C001B6903F04003402B0ED17B681B68DB688E
:10299C0003F04003402B07D17B681B686FF04002AB
:1029AC001A61786800F0F9F87B681B681B6903F002
:1029BC002003202B0ED17B681B68DB6803F02003FF
:1029CC00202B07D17B681B686FF020021A61786896
:1029DC0000F032FA00BF0837BD4680BD80B584B028
:1029EC0000AF786039607B6893F83C30012B01D1E3
:1029FC000223B3E07B68012283F83C207B6802222F
:102A0C0083F83D207B681B689B68FB60FB6823F0A8
:102A1C007703FB60FB6823F47F43FB607B681B68D8
:102A2C00FA689A603B681B68B3F5005F3ED0B3F55B
:102A3C00005F00F28780B3F5805F00F08580B3F50E
:102A4C00805F7FD8702B1AD0702B7BD8602B50D026
:102A5C00602B77D8502B3CD0502B73D8402B58D0B0
:102A6C00402B6FD8302B64D0302B6BD8202B60D000
:102A7C00202B67D8002B5CD0102B5AD062E07B68DF
:102A8C0018683B6899683B685A683B68DB6800F0DB
:102A9C005CF97B681B689B68FB60FB6843F0770301
:102AAC00FB607B681B68FA689A604EE07B6818686C
:102ABC003B6899683B685A683B68DB6800F045F9ED
:102ACC007B681B689A687B681B6842F480429A603A
:102ADC003BE07B6818683B6859683B68DB681A46C2
:102AEC0000F0BCF87B681B685021184600F013F905
:102AFC002BE07B6818683B6859683B68DB681A46B2
:102B0C0000F0DAF87B681B686021184600F003F9C6
:102B1C001BE07B6818683B6859683B68DB681A46A1
:102B2C0000F09CF87B681B684021184600F0F3F815
:102B3C000BE07B681A683B681B681946104600F06E
:102B4C00EAF802E000BF00E000BF7B68012283F8D6
:102B5C003D207B68002283F83C2000231846103768
:102B6C00BD4680BD80B483B000AF786000BF0C3729
:102B7C00BD4680BC704780B483B000AF786000BFA6
:102B8C000C37BD4680BC704780B483B000AF786012
:102B9C0000BF0C37BD4680BC704780B483B000AF1B
:102BAC00786000BF0C37BD4680BC704780B485B0E0
:102BBC0000AF786039607B681B68FB607B68254AD6
:102BCC00934207D07B68B3F1804F03D07B68224AD5
:102BDC00934208D1FB6823F07003FB603B685B6891
:102BEC00FA681343FB607B681A4A934207D07B68F0
:102BFC00B3F1804F03D07B68174A934208D1FB682E
:102C0C0023F44073FB603B68DB68FA681343FB609A
:102C1C00FB6823F080023B685B691343FB607B68B5
:102C2C00FA681A603B689A687B68DA623B681A68D3
:102C3C007B689A627B68074A934203D13B681A69A6
:102C4C007B681A637B6801225A6100BF1437BD464A
:102C5C0080BC7047002C01400004004080B487B059
:102C6C0000AFF860B9607A60FB681B6A7B61FB6837
:102C7C001B6A23F00102FB681A62FB689B693B61CB
:102C8C003B6923F0F0033B617B681B013A691343FA
:102C9C003B617B6923F00A037B617A69BB68134350
:102CAC007B61FB683A699A61FB687A691A6200BFBA
:102CBC001C37BD4680BC704780B487B000AFF8604D
:102CCC00B9607A60FB681B6A23F01002FB681A6219
:102CDC00FB689B697B61FB681B6A3B617B6923F426
:102CEC0070437B617B681B037A6913437B613B698F
:102CFC0023F0A0033B61BB681B013A6913433B61A2
:102D0C00FB687A699A61FB683A691A6200BF1C37E2
:102D1C00BD4680BC704780B485B000AF7860396028
:102D2C007B689B68FB60FB6823F07003FB603A6870
:102D3C00FB68134343F00703FB607B68FA689A60F7
:102D4C0000BF1437BD4680BC704780B487B000AF5D
:102D5C00F860B9607A603B60FB689B687B617B695B
:102D6C0023F47F437B613B681A027B681A43BB6880
:102D7C0013437A6913437B61FB687A699A6000BFDD
:102D8C001C37BD4680BC704780B485B000AF7860FE
:102D9C0039607B6893F83C30012B01D1022341E070
:102DAC007B68012283F83C207B68022283F83D205B
:102DBC007B681B685B68FB607B681B689B68BB60FF
:102DCC00FB6823F07003FB603B681B68FA681343D5
:102DDC00FB607B681B68FA685A607B681B68144A46
:102DEC00934209D07B681B68B3F1804F04D07B6899
:102DFC001B68104A93420CD1BB6823F08003BB6064
:102E0C003B685B68BA681343BB607B681B68BA6835
:102E1C009A607B68012283F83D207B68002283F84E
:102E2C003C20002318461437BD4680BC704700BFB9
:102E3C00002C01400004004080B483B000AF7860E7
:102E4C0000BF0C37BD4680BC704780B483B000AF68
:102E5C00786000BF0C37BD4680BC704770B500264B
:102E6C000C4D0D4C641BA410A64209D100F022F8A5
:102E7C0000260A4D0A4C641BA410A64205D170BD55
:102E8C0055F8043B98470136EEE755F8043B984754
:102E9C000136F2E7F82E0008F82E0008F82E00088C
:102EAC00FC2E000803460244934200D1704703F8FD
:102EBC00011BF9E7F8B500BFF8BC08BC9E4670478B
:0C2ECC00F8B500BFF8BC08BC9E4670477B
:102ED80002030405060708090A0B0C0D0E0F101053
:102EE80000000000000000000102030406070809B2
:042EF800310100089C
:042EFC000D010008BC
:102F00000100000001000000010000000B000000B3
:102F100005000000020000000300000001000000A6
:102F2000F4010000F4010000F401000001000000C1
:102F3000010000000100000001000000010000008D
:102F4000010000000100000001000000010000007D
:102F50000100000001000000010000003F065B4F7F
:102F6000666D7D077F6700000024F40010000000FC
:042F7000010000005C
:0400000508001821B6
:00000001FF
