:020000040800F2
:1000000000280020D5170008651700086B170008A6
:1000100071170008771700087D170008000000001E
:10002000000000000000000000000000831700082E
:100030008F170008000000009B170008A717000892
:100040001D1800081D1800081D1800081D180008BC
:100050001D1800081D1800081D1800081D180008AC
:100060001D1800081D1800081D1800081D1800089C
:100070001D1800081D1800081D1800081D1800088C
:100080001D1800081D1800081D1800081D1800087C
:100090001D1800081D1800081D1800081D1800086C
:1000A0001D1800081D1800081D1800081D1800085C
:1000B000B51700081D180008000000001D180008F2
:1000C0001D18000800000000000000001D180008B6
:1000D000000000001D1800081D18000800000000A6
:1000E0001D1800081D1800081D1800080000000059
:1000F0000000000000000000000000000000000000
:0C01000000000000000000005FF808F1A3
:10010C0010B5054C237833B9044B13B10448AFF345
:10011C0000800123237010BD6C0000200000000043
:10012C00742E000808B5034B1BB103490348AFF309
:10013C00008008BD0000000070000020742E000834
:10014C0080B582B000AF0346FB71FB7903F001036D
:10015C00002B0CBF01230023DBB21A4601213048CF
:10016C0001F059FEFB795B08DBB203F00103002BB5
:10017C000CBF01230023DBB21A460221284801F0F0
:10018C004AFEFB799B08DBB203F00103002B0CBF8A
:10019C0001230023DBB21A460421214801F03BFE67
:1001AC00FB79DB08DBB203F00103002B0CBF01234E
:1001BC000023DBB21A460821194801F02CFEFB790A
:1001CC001B09DBB203F00103002B0CBF012300233E
:1001DC00DBB21A461021124801F01DFEFB795B09B7
:1001EC00DBB203F00103002B0CBF01230023DBB2B5
:1001FC001A4620210A4801F00EFEFB799B09DBB25E
:10020C0003F00103002B0CBF01230023DBB21A46C1
:10021C004021034801F0FFFD00BF0837BD4680BDFB
:10022C00000C014080B485B000AF78607B68064A52
:10023C0082FB03129210DB17D31AFB60FB68184683
:10024C001437BD4680BC70476766666680B483B061
:10025C0000AF78607A68084B83FB02139910D317B0
:10026C00C91A0B469B000B445B00D11A0B4618466F
:10027C000C37BD4680BC70476766666680B500AFBC
:10028C00B04B1B68013B032B00F2978101A252F883
:10029C0023F000BFB1020008DB020008CB0300080A
:1002AC00B304000800F056FBA64B02221A60A64BC2
:1002BC001B684FF47A7202FB03F3184601F01CF929
:1002CC00A24B01221A60A24B01221A607CE100F0C1
:1002DC006DFB9E4B1B68012B56D19D4B1B68013B44
:1002EC00032B00F26A8101A252F823F009030008E3
:1002FC0037030008650300087703000800F070FF5F
:10030C00914B1A68934B1B68D31A1846FFF78AFF58
:10031C000346914AD35C1846FFF712FFFA2001F00E
:10032C003FF98B4B02221A602DE000F077FF864BD1
:10033C001A68884B1B68D31A1846FFF787FF0346C9
:10034C00854AD35C1846FFF7FBFEFA2001F028F92A
:10035C007F4B03221A6016E000F07EFFFA2001F0BA
:10036C001FF97B4B04221A600DE000F093FF794BD0
:10037C001B680133774A1360FA2001F011F9744BB2
:10038C0001221A6000BF18E1744B1B68012B40F06E
:10039C0016816D4B9B684FF47A7202FB03F318467F
:1003AC0001F0AAF8674B03221A606A4B00221A600C
:1003BC00664B01221A60664B01221A60FFE000F0C6
:1003CC0021FB624B1B68012B51D1614B1B68013B1C
:1003DC00032B4DD801A252F823F000BFF9030008FB
:1003EC0027040008550400086304000800F0F8FE18
:1003FC00554B9A685A4B1B68D31A1846FFF712FFD5
:10040C000346554AD35C1846FFF79AFEFA2001F0D2
:10041C00C7F84F4B02221A602AE000F0FFFE4A4B4D
:10042C009A684F4B1B68D31A1846FFF70FFF034609
:10043C00494AD35C1846FFF783FEFA2001F0B0F866
:10044C00434B03221A6013E0FA2001F0A9F8404B49
:10045C0004221A600CE0424B1B680133404A1360C3
:10046C00FA2001F09DF83A4B01221A6000E000BF1F
:10047C003A4B1B68012B40F0A480334B5B684FF464
:10048C007A7202FB03F3184601F036F82D4B042266
:10049C001A60334B00221A602C4B01221A602C4B31
:1004AC0001221A608DE000F0D9FA284B1B68012B51
:1004BC0068D1274B1B68013B032B64D801A252F86F
:1004CC0023F000BFE10400080F0500083D050008FB
:1004DC007505000800F084FE1B4B5A68214B1B6805
:1004EC00D31A1846FFF79EFE03461B4AD35C1846E8
:1004FC00FFF726FEFA2001F053F8154B02221A6082
:10050C0041E000F08BFE104B5A68164B1B68D31A57
:10051C001846FFF79BFE03460F4AD35C1846FFF7BD
:10052C000FFEFA2001F03CF8094B03221A602AE076
:10053C0000F092FEFA2001F033F8054B04221A6009
:10054C0021E000BF200000200C000020D80000207B
:10055C00180000208800002000000020C0000020AF
:10056C00900000208C00002000F094FE174B1B68BC
:10057C000133164A1360FA2001F012F8144B0122D1
:10058C001A6000E000BF134B1B68012B1BD1124BF0
:10059C001B684FF47A7202FB03F3184600F0ACFFB1
:1005AC000E4B02221A60094B00221A600C4B0122DE
:1005BC001A60074B01221A6005E000BF04E000BF7F
:1005CC0002E000BF00E000BF00BF80BD8C00002037
:1005DC0018000020C00000200C000020200000208B
:1005EC00D800002080B500AFAB4B1B680B3B032B36
:1005FC0000F2A08101A252F823F000BF19060008F6
:10060C0043060008330700082308000800F0B8F977
:10061C00A14B0D221A60A14B9B684FF47A7202FB1E
:10062C0003F3184600F084FF9D4B01221A609D4B8A
:10063C0001221A607EE100F0CFF9994B1B68012B67
:10064C0055D1984B1B68013B032B51D801A252F892
:10065C0023F000BF71060008830600089506000809
:10066C00C306000800F0BCFDFA2000F07DFF8D4BA6
:10067C0002221A603CE000F0D1FDFA2000F074FF79
:10068C00884B03221A6033E0844B1A68864B1B6834
:10069C00D31A1846FFF7C6FD0346844AD35C1846A6
:1006AC00FFF74EFD00F0D8FDFA2000F05DFF7D4B0A
:1006BC0004221A601CE0794B1A687B4B1B68D31A16
:1006CC001846FFF7C3FD0346784AD35C1846FFF77C
:1006DC0037FD00F0DFFD744B1B680133724A136069
:1006EC00FA2000F041FF6F4B01221A6000E000BFBE
:1006FC006F4B1B68012B40F01881684B9B684FF4C3
:10070C007A7202FB03F3184600F012FF624B0D22C3
:10071C001A60654B00221A60624B01221A60604B12
:10072C0001221A6001E100F083F95D4B1B68012B7B
:10073C0055D15C4B1B68013B032B51D801A252F8DD
:10074C0023F000BF61070008730700088507000845
:10075C00B307000800F044FDFA2000F005FF514BF0
:10076C0002221A603CE000F059FDFA2000F0FCFE79
:10077C004C4B03221A6033E0484B9A684D4B1B6874
:10078C00D31A1846FFF74EFD0346484AD35C184669
:10079C00FFF7D6FC00F060FDFA2000F0E5FE414BBF
:1007AC0004221A601CE03D4B9A68424B1B68D31A1A
:1007BC001846FFF74BFD03463C4AD35C1846FFF73F
:1007CC00BFFC00F067FD3B4B1B680133394A1360DB
:1007DC00FA2000F0C9FE334B01221A6000E000BF82
:1007EC00334B1B68012B40F0A2802C4B5B684FF401
:1007FC007A7202FB03F3184600F09AFE264B0E2287
:10080C001A602C4B00221A60264B01221A60244BD2
:10081C0001221A608BE000F037F9214B1B68012B89
:10082C0068D1204B1B68013B032B64D801A252F802
:10083C0023F000BF51080008630800087508000881
:10084C00C908000800F0CCFCFA2000F08DFE154B16
:10085C0002221A604FE000F0E1FCFA2000F084FE66
:10086C00104B03221A6046E00C4B5A68124B1B6863
:10087C00D31A1846FFF7D6FC03460C4AD35C18462D
:10088C00FFF75EFC00F0E8FCFA2000F06DFE054B73
:10089C0004221A602FE000BF240000200C0000206E
:1008AC00D00000201C00002094000020000000203C
:1008BC00C80000209C000020980000201E4B5A68A5
:1008CC001E4B1B68D31A1846FFF7C0FC03461C4A84
:1008DC00D35C1846FFF734FC00F0DCFC174B1B68AC
:1008EC000133164A1360FA2000F03EFE154B01222C
:1008FC001A6000E000BF144B1B68012B19D10E4B82
:10090C001B684FF47A7202FB03F3184600F010FEDA
:10091C000E4B0C221A60094B00221A60094B012263
:10092C001A600B4B01221A6003E000BF02E000BF0B
:10093C0000E000BF00BF80BD0C000020980000202C
:10094C00000000201C000020C80000202400002013
:10095C00D000002080B500AF01220221074801F031
:10096C005AFA01220821054801F055FA0122042106
:10097C00024801F050FA00BF80BD00BF00080140E2
:10098C0080B500AF01221021074801F044FA012282
:10099C004021054801F03FFA01222021024801F0D4
:1009AC003AFA00BF80BD00BF0008014080B500AF1F
:1009BC0000220221074801F02EFA012208210548E5
:1009CC0001F029FA01220421024801F024FA00BFA7
:1009DC0080BD00BF0008014080B500AF002210218F
:1009EC00074801F018FA01224021054801F013FADA
:1009FC0001222021024801F00EFA00BF80BD00BF89
:100A0C000008014080B500AF01220221074801F027
:100A1C0002FA00220821054801F0FDF90122042107
:100A2C00024801F0F8F900BF80BD00BF000801408A
:100A3C0080B500AF01221021074801F0ECF900222B
:100A4C004021054801F0E7F901222021024801F07C
:100A5C00E2F900BF80BD00BF0008014080B500AFC7
:100A6C0001220221074801F0D6F90122082105488C
:100A7C0001F0D1F900220421024801F0CCF900BFA9
:100A8C0080BD00BF0008014080B500AF01221021DD
:100A9C00074801F0C0F901224021054801F0BBF9DB
:100AAC0000222021024801F0B6F900BF80BD00BF32
:100ABC000008014080B500AFA54B1B78032B00F25A
:100ACC003B8201A252F823F0E50A0008450B00080E
:100ADC00890C0008150E00089E4B00221A609E4BD4
:100AEC0000221A609D4B00221A609D4B00221A6056
:100AFC009C4B00221A609C4B00221A609B4B0122DB
:100B0C001A609B4B0B221A60FFF7B8FBFFF76AFDCC
:100B1C0000F028FA0346012BF6D18D4B01221A70F6
:100B2C00944B01221A60944B01221A60FFF73EFF8E
:100B3C00FFF752FF00BFFFE1FFF70CFFFFF720FFAD
:100B4C0096E08C4B1B68012B0BD14FF4FA7000F024
:100B5C00D3FC0221894801F076F91021874801F075
:100B6C0072F9854B1B68012B50D1FA2000F0E0FC88
:100B7C00834B1B68013B032B49D801A252F823F08D
:100B8C009D0B0008B30B0008C90B0008F10B000803
:100B9C0000F026FB7B4B1B781846FFF7D1FA784BFD
:100BAC0002221A6033E000F039FB764B9B78184632
:100BBC00FFF7C6FA724B03221A6028E000F04CFBD8
:100BCC00714B1A68714B1B6813441846FFF72AFBCC
:100BDC0003466C4AD35C1846FFF7B2FA684B042202
:100BEC001A6014E000F056FB674B1A68674B1B68E1
:100BFC0013441846FFF72AFB0346624AD35C184697
:100C0C00FFF79EFA5E4B01221A6000E000BF00F075
:100C1C00BBF90346012B04D15C4B1B6801335B4AC7
:100C2C00136000F0C3F90346012B09D1564B1A6827
:100C3C00564B1B681344544A1360544B00221A60E1
:100C4C0000F090F90346012B12D1414B02221A708D
:100C5C00484B01221A60484B01221A60FFF7FEFE36
:100C6C00FFF712FF4A4B01221A60454B01221A6012
:100C7C00474B1B68002B3FF464AF5DE1444B0022F3
:100C8C001A60BBE03B4B1B68012B0BD14FF4FA7085
:100C9C0000F032FC0421394801F0D5F82021374806
:100CAC0001F0D1F8344B1B68012B75D1FA2000F000
:100CBC003FFC334B1B68013B032B6ED801A252F84F
:100CCC0023F000BFE10C0008F70C00080D0D000824
:100CDC00350D000800F084FA2A4B1B781846FFF7F4
:100CEC002FFA274B02221A6057E000F097FA254B97
:100CFC00DB781846FFF724FA214B03221A604CE0EC
:100D0C0000F0AAFA204B5A68224B1B681344184671
:100D1C00FFF788FA03461B4AD35C1846FFF710FA14
:100D2C00174B04221A6038E000F0B4FA164B5A68DC
:100D3C00184B1B6813441846FFF788FA0346114AF0
:100D4C00D35C1846FFF7FCF90D4B01221A6024E026
:100D5C00A0000020900000209C00002088000020B3
:100D6C00940000208C00002098000020200000201F
:100D7C0024000020C0000020C80000200008014012
:100D8C0028000020000000200C000020A4000020FF
:100D9C00B0000020AC00002000BF00F0F5F80346C6
:100DAC00012B04D1654B1B680133644A136000F0BE
:100DBC00FDF80346012B09D1614B5A685F4B1B6848
:100DCC0013445F4A53605D4B00221A6000F0CAF86E
:100DDC000346012B12D15B4B03221A705A4B012292
:100DEC001A605A4B01221A60FFF70CFEFFF720FE27
:100DFC00574B01221A60574B01221A60544B1B6847
:100E0C00002B3FF43FAF97E0514B00221A608DE06E
:100E1C004D4B1B68012B0BD14FF4FA7000F06CFB9F
:100E2C0008214D4801F00FF840214B4801F00BF818
:100E3C00464B1B68012B51D1FA2000F079FB454B36
:100E4C001B68013B032B4AD801A252F823F000BFC8
:100E5C006D0E0008830E0008990E0008C10E0008E4
:100E6C0000F0BEF93D4B1B781846FFF769F9394B7A
:100E7C0002221A6033E000F0D1F9384B1B79184686
:100E8C00FFF75EF9334B03221A6028E000F0E4F917
:100E9C002B4B9A68324B1B6813441846FFF7C2F968
:100EAC0003462E4AD35C1846FFF74AF9294B042215
:100EBC001A6014E000F0EEF9214B9A68284B1B687D
:100ECC0013441846FFF7C2F90346244AD35C18466C
:100EDC00FFF736F91F4B01221A6000E000BF00F04B
:100EEC0053F80346012B04D11D4B1B6801331C4ADC
:100EFC00136000F05BF80346012B09D1104B9A6884
:100F0C00174B1B6813440E4A9360154B00221A6052
:100F1C0000F028F80346012B08D10A4B00221A7066
:100F2C000B4B01221A600B4B01221A60084B1B68F9
:100F3C00002B3FF46DAF00BF00BF80BDAC000020A4
:100F4C000C000020A0000020C0000020C8000020E1
:100F5C00B000002028000020000801400000002004
:100F6C00A800002080B400AF064B1B68012B04D1F5
:100F7C00044B00221A60012300E000231846BD46F2
:100F8C0080BC7047B400002080B400AF064B1B68D7
:100F9C00012B04D1044B00221A60012300E0002332
:100FAC001846BD4680BC7047B800002080B400AF26
:100FBC00064B1B68012B04D1044B00221A60012341
:100FCC0000E000231846BD4680BC7047BC000020E2
:100FDC0080B500AF234B1B68234A1360234B1B685F
:100FEC00204A13604FF40051214800F0FDFE0346E7
:100FFC001A461E4B1A601B4B1A681C4B1B689A42F4
:10100C002DD1184B1A68184B1B689A4227D1164BD6
:10101C001A68184B1B689A420ED0134B1B68154A62
:10102C001360144B1B68002B19D1134BC8221A6088
:10103C00124B01221A6012E00F4B1B68013B0E4A47
:10104C0013600D4B1B68002B09D10A4B1B68002B3E
:10105C0005D1094BC8221A60084B01221A6000BF47
:10106C0080BD00BF3400002038000020300000207C
:10107C00000801403C0000202C000020B40000209F
:10108C0080B500AF234B1B68234A1360234B1B68AE
:10109C00204A13604FF48041214800F0A5FE03461E
:1010AC001A461E4B1A601B4B1A681C4B1B689A4243
:1010BC002DD1184B1A68184B1B689A4227D1164B26
:1010CC001A68184B1B689A420ED0134B1B68154AB2
:1010DC001360144B1B68002B19D1134BC8221A60D8
:1010EC00124B01221A6012E00F4B1B68013B0E4A97
:1010FC0013600D4B1B68002B09D10A4B1B68002B8E
:10110C0005D1094BC8221A60084B01221A6000BF96
:10111C0080BD00BF4400002048000020400000209B
:10112C00000801404C0000202C000020B8000020DA
:10113C0080B500AF234B1B68234A1360234B1B68FD
:10114C00204A13604FF40041214800F04DFE034645
:10115C001A461E4B1A601B4B1A681C4B1B689A4292
:10116C002DD1184B1A68184B1B689A4227D1164B75
:10117C001A68184B1B689A420ED0134B1B68154A01
:10118C001360144B1B68002B19D1134BC8221A6027
:10119C00124B01221A6012E00F4B1B68013B0E4AE6
:1011AC0013600D4B1B68002B09D10A4B1B68002BDD
:1011BC0005D1094BC8221A60084B01221A6000BFE6
:1011CC0080BD00BF540000205800002050000020BB
:1011DC00000801405C0000202C000020BC00002016
:1011EC0080B500AF002280210B4800F014FE0122D4
:1011FC004FF48071084800F00EFE01224FF400718C
:10120C00054800F008FE01224FF48061024800F00E
:10121C0002FE00BF80BD00BF0008014080B500AFDA
:10122C00012280210B4800F0F6FD00224FF4807162
:10123C00084800F0F0FD01224FF40071054800F061
:10124C00EAFD01224FF48061024800F0E4FD00BF8A
:10125C0080BD00BF0008014080B500AF0122802195
:10126C000B4800F0D8FD01224FF48071084800F0C3
:10127C00D2FD00224FF40071054800F0CCFD012294
:10128C004FF48061024800F0C6FD00BF80BD00BF76
:10129C000008014080B500AF012280210B4800F00E
:1012AC00BAFD01224FF48071084800F0B4FD012210
:1012BC004FF40071054800F0AEFD00224FF4806140
:1012CC00024800F0A8FD00BF80BD00BF000801402F
:1012DC0080B500AF00F09EFA00F00CF800F092F828
:1012EC0000F044F8024801F0FFF9FFF7E3FBFCE7DC
:1012FC00E800002080B590B000AF07F11803282259
:10130C000021184601F0A8FD3B1D00221A605A600E
:10131C009A60DA601A610223BB610123BB6210235D
:10132C00FB6200237B6307F11803184600F0A4FD51
:10133C000346002B01D000F0D9F80F237B6000236B
:10134C00BB600023FB6000233B6100237B613B1DE2
:10135C000021184601F010F80346002B01D000F0D4
:10136C00C5F800BF4037BD4680BD000080B586B0D3
:10137C0000AF07F1080300221A605A609A60DA6025
:10138C003B4600221A605A601D4B4FF080421A6097
:10139C001B4B41F63F725A60194B00229A60184B56
:1013AC000A22DA60164B00221A61154B00229A6150
:1013BC00134801F049F90346002B01D000F096F8D0
:1013CC004FF48053BB6007F1080319460C4801F039
:1013DC00DFFA0346002B01D000F088F800233B60B5
:1013EC0000237B603B461946054801F0A7FC0346E9
:1013FC00002B01D000F07AF800BF1837BD4680BD35
:10140C00E800002080B586B000AF07F10803002289
:10141C001A605A609A60DA60294B9B69284A43F03B
:10142C0004039361264B9B6903F004037B607B6888
:10143C00234B9B69224A43F008039361204B9B6921
:10144C0003F008033B603B68002240F2FE711D482C
:10145C0000F0E1FC00224FF67F611B4800F0DBFC42
:10146C0040F2FE73BB600123FB6000233B6102234F
:10147C007B6107F108031946124800F03BFB4FF65D
:10148C007F63BB600123FB6000233B6102237B6114
:10149C0007F1080319460C4800F02CFB4FF460438D
:1014AC00BB600023FB6001233B6107F10803194675
:1014BC00044800F01FFB00BF1837BD4680BD00BFBD
:1014CC000010024000080140000C014080B582B0C1
:1014DC0000AF7860FFF77CFDFFF7D2FDFFF728FE29
:1014EC0000F07AF800BF0837BD4680BD80B400AF6D
:1014FC0072B600BFFEE7000080B483B000AF786026
:10150C007B68084A82FB03129210DB17D31A064A37
:10151C001360064B00221A6000BF0C37BD4680BC1E
:10152C00704700BF67666666C4000020C0000020DC
:10153C0080B483B000AF78607B68084A82FB0312EA
:10154C009210DB17D31A064A1360064B00221A605E
:10155C0000BF0C37BD4680BC704700BF676666662F
:10156C00CC000020C800002080B483B000AF7860AD
:10157C007B68084A82FB03129210DB17D31A064AC7
:10158C001360064B00221A6000BF0C37BD4680BCAE
:10159C00704700BF67666666D4000020D00000204C
:1015AC0080B483B000AF78607B68084A82FB03127A
:1015BC009210DB17D31A064A1360064B00221A60EE
:1015CC0000BF0C37BD4680BC704700BF67666666BF
:1015DC00DC000020D800002080B400AF294B1B6831
:1015EC00002B0BDD274B1B68013B264A1360254B58
:1015FC001B68002B02DC244B01221A60234B1B6856
:10160C00002B0BDD214B1B68013B204A13601F4B49
:10161C001B68002B02DC1E4B01221A601D4B1B6841
:10162C00002B0BDD1B4B1B68013B1A4A1360194B3B
:10163C001B68002B02DC184B01221A60174B1B682D
:10164C00002B0BDD154B1B68013B144A1360134B2D
:10165C001B68002B02DC124B01221A60114B1B6819
:10166C00002B0BDD0F4B1B68013B0E4A13600D4B1F
:10167C001B68002B02DC0C4B01221A6000BFBD461C
:10168C0080BC7047C4000020C0000020CC000020AB
:10169C00C8000020D4000020D0000020DC00002076
:1016AC00D8000020E4000020E000002080B485B0C9
:1016BC0000AF154B9B69144A43F001039361124B25
:1016CC009B6903F00103BB60BB680F4BDB690E4ADF
:1016DC0043F08053D3610C4BDB6903F080537B6088
:1016EC007B680A4B5B68FB60FB6823F0E063FB6084
:1016FC00FB6843F08063FB60044AFB68536000BFE7
:10170C001437BD4680BC70470010024000000140F9
:10171C0080B584B000AF78607B681B68B3F1804FF4
:10172C0013D10C4BDB690B4A43F00103D361094B1A
:10173C00DB6903F00103FB60FB68002200211C2025
:10174C0000F0A1F91C2000F0BAF900BF1037BD461B
:10175C0080BD00BF0010024080B400AFFEE780B433
:10176C0000AFFEE780B400AFFEE780B400AFFEE749
:10177C0080B400AFFEE780B400AF00BFBD4680BCB4
:10178C00704780B400AF00BFBD4680BC704780B4CA
:10179C0000AF00BFBD4680BC704780B500AF00F005
:1017AC007FF800BF80BD000080B500AF024800F09C
:1017BC00E7FF00BF80BD00BFE800002080B400AF91
:1017CC0000BFBD4680BC70470C480D490D4A002334
:1017DC0002E0D458C4500433C4188C42F9D30A4ADA
:1017EC000A4C002301E013600432A242FBD3FFF742
:1017FC00E5FF01F00DFBFFF76BFD704700000020CB
:10180C006C000020B42E00086C0000203401002075
:10181C00FEE7000080B500AF084B1B68074A43F099
:10182C0010031360032000F023F90F2000F008F8D8
:10183C00FFF73CFF0023184680BD00BF002002408C
:10184C0080B582B000AF7860124B1A68124B1B78CF
:10185C0019464FF47A73B3FBF1F3B2FBF3F318466A
:10186C0000F03BF90346002B01D001230EE07B680E
:10187C000F2B0AD8002279684FF0FF3000F003F9E3
:10188C00064A7B681360002300E0012318460837E2
:10189C00BD4680BD60000020680000206400002070
:1018AC0080B400AF054B1B781A46054B1B681344DC
:1018BC00034A136000BFBD4680BC7047680000201F
:1018CC003001002080B400AF024B1B681846BD46A7
:1018DC0080BC70473001002080B485B000AF7860C8
:1018EC007B6803F00703FB600C4BDB68BB60BA68DA
:1018FC004FF6FF031340BB60FB681A02BB6813432F
:10190C0043F0BF6343F40033BB60044ABB68D3604D
:10191C0000BF1437BD4680BC704700BF00ED00E02F
:10192C0080B400AF044BDB681B0A03F007031846B6
:10193C00BD4680BC704700BF00ED00E080B483B0B2
:10194C0000AF0346FB7197F90730002B0BDBFB79DB
:10195C0003F01F02064997F907305B09012000FAD2
:10196C0002F241F8232000BF0C37BD4680BC704703
:10197C0000E100E080B483B000AF03463960FB7136
:10198C0097F90730002B0ADB3B68DAB20C4997F960
:10199C0007301201D2B20B4483F800230AE03B68F3
:1019AC00DAB20849FB7903F00F03043B1201D2B2FF
:1019BC000B441A7600BF0C37BD4680BC704700BF85
:1019CC0000E100E000ED00E080B489B000AFF86009
:1019DC00B9607A60FB6803F00703FB61FB69C3F134
:1019EC000703042B28BF0423BB61FB690433062BBC
:1019FC0002D9FB69033B00E000237B614FF0FF320F
:101A0C00BB6902FA03F3DA43BB681A407B699A405C
:101A1C004FF0FF317B6901FA03F3D9437B680B402C
:101A2C00134318462437BD4680BC704780B582B03E
:101A3C0000AF78607B68013BB3F1807F01D3012359
:101A4C000FE00A4A7B68013B53600F214FF0FF30D7
:101A5C00FFF790FF054B00229A60044B07221A6097
:101A6C00002318460837BD4680BD00BF10E000E0DB
:101A7C0080B582B000AF78607868FFF72DFF00BFAB
:101A8C000837BD4680BD80B586B000AF0346B9604F
:101A9C007A60FB7300237B61FFF742FF78617A6801
:101AAC00B9687869FFF790FF024697F90F30114635
:101ABC001846FFF75FFF00BF1837BD4680BD80B5E5
:101ACC0082B000AF0346FB7197F907301846FFF759
:101ADC0035FF00BF0837BD4680BD80B582B000AF72
:101AEC0078607868FFF7A2FF034618460837BD46B2
:101AFC0080BD000080B48BB000AF786039600023EB
:101B0C007B6200233B6248E101227B6A02FA03F309
:101B1C00FB613B681B68FA691340BB61BA69FB69DE
:101B2C009A4240F037813B685B68A34A93425ED08F
:101B3C00A14A934275D8A14A934258D09F4A9342E6
:101B4C006FD89F4A934252D09D4A934269D89D4A7E
:101B5C0093424CD09B4A934263D89B4A934246D0C3
:101B6C00994A93425DD8122B2AD8122B59D801A22C
:101B7C0052F823F0FB1B0008D51B0008E71B0008DC
:101B8C00291C00082F1C00082F1C00082F1C000803
:101B9C002F1C00082F1C00082F1C00082F1C0008ED
:101BAC002F1C00082F1C00082F1C00082F1C0008DD
:101BBC002F1C00082F1C0008DD1B0008F11B00085F
:101BCC00824A934213D02CE03B68DB683B6229E0ED
:101BDC003B68DB6804333B6224E03B68DB6808331A
:101BEC003B621FE03B68DB680C333B621AE03B68EE
:101BFC009B68002B02D104233B6213E03B689B687B
:101C0C00012B05D108233B627B68FA691A6109E054
:101C1C0008233B627B68FA695A6103E000233B624C
:101C2C0000E000BFBB69FF2B01D87B6801E07B683B
:101C3C0004337B61BB69FF2B02D87B6A9B0002E0FB
:101C4C007B6A083B9B003B617B691A680F213B69EF
:101C5C0001FA03F3DB431A40396A3B6901FA03F3D7
:101C6C001A437B691A603B685B6803F08053002B56
:101C7C0000F09080564B9B69554A43F001039361E9
:101C8C00534B9B6903F00103BB60BB68514A7B6AF1
:101C9C009B08023352F82330FB607B6A03F003038A
:101CAC009B000F2202FA03F3DB43FA681340FB603C
:101CBC007B68494A93420DD07B68484A934207D0CF
:101CCC007B68474A934201D1022304E0032302E0DC
:101CDC00012300E000237A6A02F003029200934091
:101CEC00FA681343FB603B497B6A9B080233FA6832
:101CFC0041F823203B685B6803F48033002B06D04B
:101D0C00384B1A683749BB6913430B6006E0354BF7
:101D1C001A68BB69DB43334913400B603B685B6853
:101D2C0003F40033002B06D02E4B5A682D49BB69A7
:101D3C0013434B6006E02B4B5A68BB69DB432949C4
:101D4C0013404B603B685B6803F48013002B06D098
:101D5C00244B9A682349BB6913438B6006E0214BE3
:101D6C009A68BB69DB431F4913408B603B685B6817
:101D7C0003F40013002B06D01A4BDA681949BB691F
:101D8C001343CB6006E0174BDA68BB69DB4315499C
:101D9C001340CB607B6A01337B623B681A687B6AB9
:101DAC0022FA03F3002B7FF4AFAE00BF00BF2C3739
:101DBC00BD4680BC704700BF0000321000003110DF
:101DCC000000221000002110000012100000111061
:101DDC00001002400000014000080140000C0140CE
:101DEC00001001400004014080B485B000AF786061
:101DFC000B467B807B689A687B881340002B02D053
:101E0C000123FB7301E00023FB73FB7B18461437A3
:101E1C00BD4680BC704780B483B000AF78600B4681
:101E2C007B8013467B707B78002B03D07A887B6891
:101E3C001A6103E07B881A047B681A6100BF0C37B7
:101E4C00BD4680BC704780B485B000AF78600B464F
:101E5C007B807B68DB68FB607A88FB6813401A0424
:101E6C00FB68D9437B880B401A437B681A6100BF1F
:101E7C001437BD4680BC704780B586B000AF786023
:101E8C007B68002B01D101236CE27B681B6803F09B
:101E9C000103002B00F08780924B5B6803F00C036E
:101EAC00042B0CD08F4B5B6803F00C03082B12D166
:101EBC008C4B5B6803F48033B3F5803F0BD1894BBB
:101ECC001B6803F40033002B6CD07B685B68002B21
:101EDC0068D1012346E27B685B68B3F5803F06D18D
:101EEC00804B1B687F4A43F4803313602EE07B6881
:101EFC005B68002B0CD17B4B1B687A4A23F4803334
:101F0C001360784B1B68774A23F4802313601DE021
:101F1C007B685B68B3F5A02F0CD1724B1B68714AC0
:101F2C0043F4802313606F4B1B686E4A43F4803379
:101F3C0013600BE06B4B1B686A4A23F4803313600D
:101F4C00684B1B68674A23F4802313607B685B68CB
:101F5C00002B13D0FFF7B6FC386108E0FFF7B2FC9A
:101F6C0002463B69D31A642B01D90323FAE15D4B7A
:101F7C001B6803F40033002BF0D014E0FFF7A2FC35
:101F8C00386108E0FFF79EFC02463B69D31A642BCC
:101F9C0001D90323E6E1534B1B6803F40033002BF8
:101FAC00F0D100E000BF7B681B6803F00203002B3C
:101FBC0063D04C4B5B6803F00C03002B0BD0494BEC
:101FCC005B6803F00C03082B1CD1464B5B6803F4D5
:101FDC008033002B16D1434B1B6803F00203002BFC
:101FEC0005D07B681B69012B01D00123BAE13D4B65
:101FFC001B6823F0F8027B685B69DB0039491343EB
:10200C000B603AE07B681B69002B20D0364B012219
:10201C001A60FFF757FC386108E0FFF753FC0246E3
:10202C003B69D31A022B01D903239BE12D4B1B686F
:10203C0003F00203002BF0D02A4B1B6823F0F802AC
:10204C007B685B69DB00274913430B6015E0264B6B
:10205C0000221A60FFF736FC386108E0FFF732FC0B
:10206C0002463B69D31A022B01D903237AE11D4B9B
:10207C001B6803F00203002BF0D17B681B6803F094
:10208C000803002B3AD07B689B69002B19D0174BA7
:10209C0001221A60FFF716FC386108E0FFF712FC0A
:1020AC0002463B69D31A022B01D903235AE10D4B8B
:1020BC005B6A03F00203002BF0D0012000F0A6FABB
:1020CC001CE00A4B00221A60FFF7FCFB38610FE0A2
:1020DC00FFF7F8FB02463B69D31A022B08D90323FE
:1020EC0040E100BF00100240000042428004424226
:1020FC009E4B5B6A03F00203002BE9D17B681B68E3
:10210C0003F00403002B00F0A6800023FB75974B13
:10211C00DB6903F08053002B0DD1944BDB69934AA0
:10212C0043F08053D361914BDB6903F08053BB6068
:10213C00BB680123FB758E4B1B6803F48073002B6B
:10214C0018D18B4B1B688A4A43F480731360FFF7DA
:10215C00B9FB386108E0FFF7B5FB02463B69D31ABF
:10216C00642B01D90323FDE0814B1B6803F48073BE
:10217C00002BF0D07B68DB68012B06D17B4B1B6AF4
:10218C007A4A43F0010313622DE07B68DB68002B75
:10219C000CD1764B1B6A754A23F001031362734B07
:1021AC001B6A724A23F0040313621CE07B68DB6831
:1021BC00052B0CD16D4B1B6A6C4A43F00403136264
:1021CC006A4B1B6A694A43F0010313620BE0674BCD
:1021DC001B6A664A23F001031362644B1B6A634A51
:1021EC0023F0040313627B68DB68002B15D0FFF728
:1021FC0069FB38610AE0FFF765FB02463B69D31ABD
:10220C0041F28832934201D90323ABE0574B1B6A4E
:10221C0003F00203002BEED014E0FFF753FB386100
:10222C000AE0FFF74FFB02463B69D31A41F28832B2
:10223C00934201D9032395E04C4B1B6A03F0020334
:10224C00002BEED1FB7D012B05D1484BDB69474AB6
:10225C0023F08053D3617B68DB69002B00F0818015
:10226C00424B5B6803F00C03082B61D07B68DB6985
:10227C00022B46D13F4B00221A60FFF723FB38613B
:10228C0008E0FFF71FFB02463B69D31A022B01D96A
:10229C00032367E0354B1B6803F00073002BF0D170
:1022AC007B681B6AB3F5803F08D1304B5B6823F425
:1022BC0000327B689B682D4913434B602B4B5B684A
:1022CC0023F474127B68196A7B685B6A0B43274999
:1022DC0013434B60274B01221A60FFF7F3FA386166
:1022EC0008E0FFF7EFFA02463B69D31A022B01D93B
:1022FC00032337E01D4B1B6803F00073002BF0D059
:10230C002FE01C4B00221A60FFF7DCFA386108E062
:10231C00FFF7D8FA02463B69D31A022B01D90323E3
:10232C0020E0124B1B6803F00073002BF0D118E077
:10233C007B68DB69012B01D1012313E00B4B5B683C
:10234C00FB60FB6803F480327B681B6A9A4206D1FF
:10235C00FB6803F470127B685B6A9A4201D001231C
:10236C0000E0002318461837BD4680BD001002401F
:10237C00007000406000424280B584B000AF7860CD
:10238C0039607B68002B01D10123D0E06A4B1B68BC
:10239C0003F007033A689A4210D9674B1B6823F085
:1023AC00070265493B6813430B60634B1B6803F0E2
:1023BC0007033A689A4201D00123B8E07B681B6896
:1023CC0003F00203002B20D07B681B6803F004038E
:1023DC00002B05D0594B5B68584A43F4E0635360BB
:1023EC007B681B6803F00803002B05D0534B5B681C
:1023FC00524A43F460535360504B5B6823F0F00235
:10240C007B689B684D4913434B607B681B6803F0EA
:10241C000103002B40D07B685B68012B07D1474B35
:10242C001B6803F40033002B15D101237FE07B687C
:10243C005B68022B07D1414B1B6803F00073002B28
:10244C0009D1012373E03D4B1B6803F00203002B01
:10245C0001D101236BE0394B5B6823F003027B68ED
:10246C005B68364913434B60FFF72CFAF8600AE0BF
:10247C00FFF728FA0246FB68D31A41F288329342DE
:10248C0001D9032353E02D4B5B6803F00C027B68EE
:10249C005B689B009A42EBD1274B1B6803F0070348
:1024AC003A689A4210D2244B1B6823F00702224947
:1024BC003B6813430B60204B1B6803F007033A681F
:1024CC009A4201D0012332E07B681B6803F00403BD
:1024DC00002B08D0194B5B6823F4E0627B68DB6847
:1024EC00164913434B607B681B6803F00803002BF1
:1024FC0009D0124B5B6823F460527B681B69DB00CC
:10250C000E4913434B6000F021F802460B4B5B68FD
:10251C001B0903F00F030A49CB5C22FA03F3094AA7
:10252C001360094B1B681846FFF78AF900231846FD
:10253C001037BD4680BD00BF002002400010024095
:10254C009C2E0008600000206400002090B48AB02B
:10255C0000AF2A4B3C1D0FCB84E80F0040F2012347
:10256C003B800023FB610023BB6100237B620023C3
:10257C007B6100233B62224B5B68FB61FB6903F0D0
:10258C000C03042B02D0082B03D02DE01D4B3B6217
:10259C002DE0FB699B0C03F00F0307F12802134499
:1025AC0013F8243C7B61FB6903F48033002B13D0BC
:1025BC00134B5B685B0C03F0010307F12802134417
:1025CC0013F8283CBB617B690E4A02FB03F2BB6922
:1025DC00B2FBF3F37B6204E07B690B4A02FB03F36F
:1025EC007B627B6A3B6202E0064B3B6200BF3B6A4C
:1025FC0018462837BD4690BC704700BF8C2E00088B
:10260C000010024000127A0000093D0080B485B031
:10261C0000AF78600A4B1B680A4AA2FB03235B0AD3
:10262C007A6802FB03F3FB6000BFFB685A1EFA607A
:10263C00002BF9D100BF00BF1437BD4680BC7047DA
:10264C0060000020D34D621080B582B000AF78607E
:10265C007B68002B01D1012341E07B6893F83D306E
:10266C00DBB2002B06D17B68002283F83C20786813
:10267C00FFF74EF87B68022283F83D207B681A68CE
:10268C007B6804331946104600F06AFA7B68012215
:10269C0083F846207B68012283F83E207B68012268
:1026AC0083F83F207B68012283F840207B6801225D
:1026BC0083F841207B68012283F842207B68012249
:1026CC0083F843207B68012283F844207B68012235
:1026DC0083F845207B68012283F83D2000231846AF
:1026EC000837BD4680BD000080B485B000AF78606F
:1026FC007B6893F83D30DBB2012B01D0012335E030
:10270C007B68022283F83D207B681B68DA687B6853
:10271C001B6842F00102DA607B681B68164A934220
:10272C0009D07B681B68B3F1804F04D07B681B68B1
:10273C00124A934211D17B681B689B6803F0070314
:10274C00FB60FB68062B10D07B681B681A687B68E3
:10275C001B6842F001021A6007E07B681B681A686C
:10276C007B681B6842F001021A600023184614377C
:10277C00BD4680BC704700BF002C014000040040E7
:10278C0080B582B000AF78607B681B681B6903F072
:10279C000203022B22D17B681B68DB6803F0020367
:1027AC00022B1BD17B681B686FF002021A617B68DD
:1027BC0001221A777B681B689B6903F00303002BCB
:1027CC0003D0786800F0B1F905E0786800F0A4F95E
:1027DC00786800F0B3F97B6800221A777B681B6875
:1027EC001B6903F00403042B22D17B681B68DB6894
:1027FC0003F00403042B1BD17B681B686FF00402ED
:10280C001A617B6802221A777B681B689B6903F448
:10281C004073002B03D0786800F087F905E07868E6
:10282C0000F07AF9786800F089F97B6800221A7751
:10283C007B681B681B6903F00803082B22D17B689B
:10284C001B68DB6803F00803082B1BD17B681B6833
:10285C006FF008021A617B6804221A777B681B6888
:10286C00DB6903F00303002B03D0786800F05DF9FB
:10287C0005E0786800F050F9786800F05FF97B6843
:10288C0000221A777B681B681B6903F01003102B5E
:10289C0022D17B681B68DB6803F01003102B1BD163
:1028AC007B681B686FF010021A617B6808221A772C
:1028BC007B681B68DB6903F44073002B03D07868DA
:1028CC0000F033F905E0786800F026F9786800F03C
:1028DC0035F97B6800221A777B681B681B6903F04B
:1028EC000103012B0ED17B681B68DB6803F001032D
:1028FC00012B07D17B681B686FF001021A617868A5
:10290C00FEF7E4FD7B681B681B6903F08003802BDA
:10291C000ED17B681B68DB6803F08003802B07D12A
:10292C007B681B686FF080021A61786800F067FAA8
:10293C007B681B681B6903F04003402B0ED17B683E
:10294C001B68DB6803F04003402B07D17B681B68D6
:10295C006FF040021A61786800F0F9F87B681B6828
:10296C001B6903F02003202B0ED17B681B68DB68EE
:10297C0003F02003202B07D17B681B686FF020022B
:10298C001A61786800F032FA00BF0837BD4680BD86
:10299C0080B584B000AF786039607B6893F83C30C8
:1029AC00012B01D10223B3E07B68012283F83C2088
:1029BC007B68022283F83D207B681B689B68FB6068
:1029CC00FB6823F07703FB60FB6823F47F43FB6019
:1029DC007B681B68FA689A603B681B68B3F5005FFC
:1029EC003ED0B3F5005F00F28780B3F5805F00F056
:1029FC008580B3F5805F7FD8702B1AD0702B7BD875
:102A0C00602B50D0602B77D8502B3CD0502B73D8E8
:102A1C00402B58D0402B6FD8302B64D0302B6BD838
:102A2C00202B60D0202B67D8002B5CD0102B5AD0D9
:102A3C0062E07B6818683B6899683B685A683B6839
:102A4C00DB6800F05CF97B681B689B68FB60FB68CB
:102A5C0043F07703FB607B681B68FA689A604EE072
:102A6C007B6818683B6899683B685A683B68DB6808
:102A7C0000F045F97B681B689A687B681B6842F418
:102A8C0080429A603BE07B6818683B6859683B68F9
:102A9C00DB681A4600F0BCF87B681B6850211846AE
:102AAC0000F013F92BE07B6818683B6859683B68A9
:102ABC00DB681A4600F0DAF87B681B686021184660
:102ACC0000F003F91BE07B6818683B6859683B68A9
:102ADC00DB681A4600F09CF87B681B68402118469E
:102AEC0000F0F3F80BE07B681A683B681B6819462A
:102AFC00104600F0EAF802E000BF00E000BF7B687F
:102B0C00012283F83D207B68002283F83C200023BF
:102B1C0018461037BD4680BD80B483B000AF7860D6
:102B2C0000BF0C37BD4680BC704780B483B000AF8B
:102B3C00786000BF0C37BD4680BC704780B483B052
:102B4C0000AF786000BF0C37BD4680BC704780B4C6
:102B5C0083B000AF786000BF0C37BD4680BC7047B7
:102B6C0080B485B000AF786039607B681B68FB600F
:102B7C007B68254A934207D07B68B3F1804F03D022
:102B8C007B68224A934208D1FB6823F07003FB60F8
:102B9C003B685B68FA681343FB607B681A4A934294
:102BAC0007D07B68B3F1804F03D07B68174A934200
:102BBC0008D1FB6823F44073FB603B68DB68FA6860
:102BCC001343FB60FB6823F080023B685B69134393
:102BDC00FB607B68FA681A603B689A687B68DA620B
:102BEC003B681A687B689A627B68074A934203D1F8
:102BFC003B681A697B681A637B6801225A6100BFC3
:102C0C001437BD4680BC7047002C014000040040C6
:102C1C0080B487B000AFF860B9607A60FB681B6A5B
:102C2C007B61FB681B6A23F00102FB681A62FB687C
:102C3C009B693B613B6923F0F0033B617B681B01A3
:102C4C003A6913433B617B6923F00A037B617A6920
:102C5C00BB6813437B61FB683A699A61FB687A69CC
:102C6C001A6200BF1C37BD4680BC704780B487B069
:102C7C0000AFF860B9607A60FB681B6A23F0100241
:102C8C00FB681A62FB689B697B61FB681B6A3B6192
:102C9C007B6923F470437B617B681B037A69134364
:102CAC007B613B6923F0A0033B61BB681B013A6964
:102CBC0013433B61FB687A699A61FB683A691A6253
:102CCC0000BF1C37BD4680BC704780B485B000AFD8
:102CDC00786039607B689B68FB60FB6823F070034D
:102CEC00FB603A68FB68134343F00703FB607B68A7
:102CFC00FA689A6000BF1437BD4680BC704780B438
:102D0C0087B000AFF860B9607A603B60FB689B6885
:102D1C007B617B6923F47F437B613B681A027B6890
:102D2C001A43BB6813437A6913437B61FB687A6966
:102D3C009A6000BF1C37BD4680BC704780B485B01C
:102D4C0000AF786039607B6893F83C30012B01D17F
:102D5C00022341E07B68012283F83C207B6802223D
:102D6C0083F83D207B681B685B68FB607B681B6895
:102D7C009B68BB60FB6823F07003FB603B681B68BF
:102D8C00FA681343FB607B681B68FA685A607B68BF
:102D9C001B68144A934209D07B681B68B3F1804FBF
:102DAC0004D07B681B68104A93420CD1BB6823F09B
:102DBC008003BB603B685B68BA681343BB607B688D
:102DCC001B68BA689A607B68012283F83D207B6897
:102DDC00002283F83C20002318461437BD4680BCE3
:102DEC00704700BF002C01400004004080B483B049
:102DFC0000AF786000BF0C37BD4680BC704780B414
:102E0C0083B000AF786000BF0C37BD4680BC704704
:102E1C0070B500260C4D0D4C641BA410A64209D1B4
:102E2C0000F022F800260A4D0A4C641BA410A6429E
:102E3C0005D170BD55F8043B98470136EEE755F8BF
:102E4C00043B98470136F2E7AC2E0008AC2E000884
:102E5C00AC2E0008B02E000803460244934200D169
:102E6C00704703F8011BF9E7F8B500BFF8BC08BCC4
:102E7C009E467047F8B500BFF8BC08BC9E4670472C
:102E8C0002030405060708090A0B0C0D0E0F10109F
:102E9C0000000000000000000102030406070809FE
:042EAC0031010008E8
:042EB0000D01000808
:102EB4003F065B4F666D7D077F67000005000000DD
:102EC40002000000030000000100000001000000F7
:102ED400010000000B00000001000000C800000019
:102EE40001000000010000000100000001000000DA
:102EF40001000000010000000100000001000000CA
:102F040001000000010000000100000001000000B9
:0C2F14000024F400100000000100000088
:04000005080017D503
:00000001FF
